{
  "contractName": "Escrow",
  "abi": [
    {
      "anonymous": false,
      "inputs": [
        {
          "indexed": false,
          "internalType": "string",
          "name": "invoiceNumber",
          "type": "string"
        },
        {
          "indexed": false,
          "internalType": "uint256",
          "name": "amount",
          "type": "uint256"
        },
        {
          "indexed": false,
          "internalType": "address",
          "name": "buyer",
          "type": "address"
        },
        {
          "indexed": false,
          "internalType": "address",
          "name": "seller",
          "type": "address"
        }
      ],
      "name": "FundsDeposited",
      "type": "event"
    },
    {
      "anonymous": false,
      "inputs": [
        {
          "indexed": false,
          "internalType": "string",
          "name": "invoiceNumber",
          "type": "string"
        }
      ],
      "name": "FundsReleased",
      "type": "event"
    },
    {
      "inputs": [
        {
          "internalType": "string",
          "name": "",
          "type": "string"
        }
      ],
      "name": "escrows",
      "outputs": [
        {
          "internalType": "string",
          "name": "invoiceNumber",
          "type": "string"
        },
        {
          "internalType": "uint256",
          "name": "amount",
          "type": "uint256"
        },
        {
          "internalType": "address payable",
          "name": "buyer",
          "type": "address"
        },
        {
          "internalType": "address payable",
          "name": "seller",
          "type": "address"
        },
        {
          "internalType": "bool",
          "name": "isPaid",
          "type": "bool"
        },
        {
          "internalType": "bool",
          "name": "isReleased",
          "type": "bool"
        }
      ],
      "stateMutability": "view",
      "type": "function",
      "constant": true
    },
    {
      "inputs": [
        {
          "internalType": "string",
          "name": "invoiceNumber",
          "type": "string"
        },
        {
          "internalType": "address payable",
          "name": "buyer",
          "type": "address"
        },
        {
          "internalType": "address payable",
          "name": "seller",
          "type": "address"
        }
      ],
      "name": "depositFunds",
      "outputs": [],
      "stateMutability": "payable",
      "type": "function",
      "payable": true
    },
    {
      "inputs": [
        {
          "internalType": "string",
          "name": "invoiceNumber",
          "type": "string"
        }
      ],
      "name": "releaseFunds",
      "outputs": [],
      "stateMutability": "nonpayable",
      "type": "function"
    }
  ],
  "bytecode": "0x608060405234801561001057600080fd5b50610d3a806100206000396000f3fe6080604052600436106100345760003560e01c806332c76523146100395780635cc9f86414610055578063c3abd8b314610097575b600080fd5b610053600480360381019061004e919061078a565b6100c0565b005b34801561006157600080fd5b5061007c60048036038101906100779190610749565b61036a565b60405161008e96959493929190610a1c565b60405180910390f35b3480156100a357600080fd5b506100be60048036038101906100b99190610749565b61049e565b005b600073ffffffffffffffffffffffffffffffffffffffff166000846040516100e89190610997565b908152602001604051809103902060020160009054906101000a900473ffffffffffffffffffffffffffffffffffffffff1673ffffffffffffffffffffffffffffffffffffffff1614610170576040517f08c379a000000000000000000000000000000000000000000000000000000000815260040161016790610aa4565b60405180910390fd5b600034116101b3576040517f08c379a00000000000000000000000000000000000000000000000000000000081526004016101aa90610ac4565b60405180910390fd5b6040518060c001604052808481526020013481526020018373ffffffffffffffffffffffffffffffffffffffff1681526020018273ffffffffffffffffffffffffffffffffffffffff168152602001600115158152602001600015158152506000846040516102229190610997565b9081526020016040518091039020600082015181600001908051906020019061024c929190610629565b506020820151816001015560408201518160020160006101000a81548173ffffffffffffffffffffffffffffffffffffffff021916908373ffffffffffffffffffffffffffffffffffffffff16021790555060608201518160030160006101000a81548173ffffffffffffffffffffffffffffffffffffffff021916908373ffffffffffffffffffffffffffffffffffffffff16021790555060808201518160030160146101000a81548160ff02191690831515021790555060a08201518160030160156101000a81548160ff0219169083151502179055509050507fd724bdac6f8bb3298070ecc404c4818235c08f3d7d6a6c6a8414180518d5e4c88334848460405161035d94939291906109d0565b60405180910390a1505050565b6000818051602081018201805184825260208301602085012081835280955050505050506000915090508060000180546103a390610c4c565b80601f01602080910402602001604051908101604052809291908181526020018280546103cf90610c4c565b801561041c5780601f106103f15761010080835404028352916020019161041c565b820191906000526020600020905b8154815290600101906020018083116103ff57829003601f168201915b5050505050908060010154908060020160009054906101000a900473ffffffffffffffffffffffffffffffffffffffff16908060030160009054906101000a900473ffffffffffffffffffffffffffffffffffffffff16908060030160149054906101000a900460ff16908060030160159054906101000a900460ff16905086565b600080826040516104af9190610997565b908152602001604051809103902090508060030160149054906101000a900460ff16610510576040517f08c379a000000000000000000000000000000000000000000000000000000000815260040161050790610a84565b60405180910390fd5b8060030160159054906101000a900460ff1615610562576040517f08c379a000000000000000000000000000000000000000000000000000000000815260040161055990610ae4565b60405180910390fd5b60018160030160156101000a81548160ff0219169083151502179055508060030160009054906101000a900473ffffffffffffffffffffffffffffffffffffffff1673ffffffffffffffffffffffffffffffffffffffff166108fc82600101549081150290604051600060405180830381858888f193505050501580156105ed573d6000803e3d6000fd5b507f34567e7446b80ca7f5a73eae9067f96e8e8092690c58da06aeb24ba49725abe98260405161061d91906109ae565b60405180910390a15050565b82805461063590610c4c565b90600052602060002090601f016020900481019282610657576000855561069e565b82601f1061067057805160ff191683800117855561069e565b8280016001018555821561069e579182015b8281111561069d578251825591602001919060010190610682565b5b5090506106ab91906106af565b5090565b5b808211156106c85760008160009055506001016106b0565b5090565b60006106df6106da84610b35565b610b04565b9050828152602081018484840111156106f757600080fd5b610702848285610c0a565b509392505050565b60008135905061071981610ced565b92915050565b600082601f83011261073057600080fd5b81356107408482602086016106cc565b91505092915050565b60006020828403121561075b57600080fd5b600082013567ffffffffffffffff81111561077557600080fd5b6107818482850161071f565b91505092915050565b60008060006060848603121561079f57600080fd5b600084013567ffffffffffffffff8111156107b957600080fd5b6107c58682870161071f565b93505060206107d68682870161070a565b92505060406107e78682870161070a565b9150509250925092565b6107fa81610bd4565b82525050565b61080981610b8c565b82525050565b61081881610b9e565b82525050565b600061082982610b65565b6108338185610b70565b9350610843818560208601610c19565b61084c81610cdc565b840191505092915050565b600061086282610b65565b61086c8185610b81565b935061087c818560208601610c19565b80840191505092915050565b6000610895601683610b70565b91507f46756e647320617265206e6f74207061696420796574000000000000000000006000830152602082019050919050565b60006108d5601583610b70565b91507f457363726f7720616c72656164792065786973747300000000000000000000006000830152602082019050919050565b6000610915601d83610b70565b91507f416d6f756e74206d7573742062652067726561746572207468616e20300000006000830152602082019050919050565b6000610955601683610b70565b91507f46756e647320616c72656164792072656c6561736564000000000000000000006000830152602082019050919050565b61099181610bca565b82525050565b60006109a38284610857565b915081905092915050565b600060208201905081810360008301526109c8818461081e565b905092915050565b600060808201905081810360008301526109ea818761081e565b90506109f96020830186610988565b610a0660408301856107f1565b610a1360608301846107f1565b95945050505050565b600060c0820190508181036000830152610a36818961081e565b9050610a456020830188610988565b610a526040830187610800565b610a5f6060830186610800565b610a6c608083018561080f565b610a7960a083018461080f565b979650505050505050565b60006020820190508181036000830152610a9d81610888565b9050919050565b60006020820190508181036000830152610abd816108c8565b9050919050565b60006020820190508181036000830152610add81610908565b9050919050565b60006020820190508181036000830152610afd81610948565b9050919050565b6000604051905081810181811067ffffffffffffffff82111715610b2b57610b2a610cad565b5b8060405250919050565b600067ffffffffffffffff821115610b5057610b4f610cad565b5b601f19601f8301169050602081019050919050565b600081519050919050565b600082825260208201905092915050565b600081905092915050565b6000610b9782610baa565b9050919050565b60008115159050919050565b600073ffffffffffffffffffffffffffffffffffffffff82169050919050565b6000819050919050565b6000610bdf82610be6565b9050919050565b6000610bf182610bf8565b9050919050565b6000610c0382610baa565b9050919050565b82818337600083830152505050565b60005b83811015610c37578082015181840152602081019050610c1c565b83811115610c46576000848401525b50505050565b60006002820490506001821680610c6457607f821691505b60208210811415610c7857610c77610c7e565b5b50919050565b7f4e487b7100000000000000000000000000000000000000000000000000000000600052602260045260246000fd5b7f4e487b7100000000000000000000000000000000000000000000000000000000600052604160045260246000fd5b6000601f19601f8301169050919050565b610cf681610b8c565b8114610d0157600080fd5b5056fea26469706673582212202a9df5bfa0fc647a650b3b11582526c9f2138c1249eb46939a6a202f5e9593d664736f6c63430008000033",
  "immutableReferences": {},
  "source": "// SPDX-License-Identifier: MIT\npragma solidity ^0.8.0;\n\ncontract Escrow {\n    struct EscrowDetail {\n        string invoiceNumber;\n        uint256 amount;\n        address payable buyer;\n        address payable seller;\n        bool isPaid;\n        bool isReleased;\n    }\n\n    mapping(string => EscrowDetail) public escrows;\n\n    event FundsDeposited(string invoiceNumber, uint256 amount, address buyer, address seller);\n    event FundsReleased(string invoiceNumber);\n\n    function depositFunds(string memory invoiceNumber, address payable buyer, address payable seller) public payable {\n        require(escrows[invoiceNumber].buyer == address(0), \"Escrow already exists\");\n        require(msg.value > 0, \"Amount must be greater than 0\");\n\n        escrows[invoiceNumber] = EscrowDetail({\n            invoiceNumber: invoiceNumber,\n            amount: msg.value,\n            buyer: buyer,\n            seller: seller,\n            isPaid: true,\n            isReleased: false\n        });\n\n        emit FundsDeposited(invoiceNumber, msg.value, buyer, seller);\n    }\n\n    function releaseFunds(string memory invoiceNumber) public {\n        EscrowDetail storage escrow = escrows[invoiceNumber];\n        require(escrow.isPaid, \"Funds are not paid yet\");\n        require(!escrow.isReleased, \"Funds already released\");\n\n        escrow.isReleased = true;\n        escrow.seller.transfer(escrow.amount);\n        emit FundsReleased(invoiceNumber);\n    }\n}\n",
  "sourcePath": "/home/damilola/Desktop/blockchain-supply-chain/backend/contracts/Escrow.sol",
  "compiler": {
    "name": "solc",
    "version": "0.8.0+commit.c7dfd78e.Emscripten.clang"
  },
  "schemaVersion": "3.4.16",
  "updatedAt": "2024-06-16T15:31:17.754Z",
  "networkType": "ethereum",
  "devdoc": {
    "kind": "dev",
    "methods": {},
    "version": 1
  },
  "userdoc": {
    "kind": "user",
    "methods": {},
    "version": 1
  }
}