{
  "contractName": "Invoice",
  "abi": [
    {
      "anonymous": false,
      "inputs": [
        {
          "indexed": false,
          "internalType": "string",
          "name": "invoiceNumber",
          "type": "string"
        },
        {
          "indexed": false,
          "internalType": "uint256",
          "name": "amount",
          "type": "uint256"
        },
        {
          "indexed": false,
          "internalType": "address",
          "name": "buyer",
          "type": "address"
        },
        {
          "indexed": false,
          "internalType": "address",
          "name": "seller",
          "type": "address"
        }
      ],
      "name": "InvoiceCreated",
      "type": "event"
    },
    {
      "anonymous": false,
      "inputs": [
        {
          "indexed": false,
          "internalType": "string",
          "name": "invoiceNumber",
          "type": "string"
        }
      ],
      "name": "InvoiceDelivered",
      "type": "event"
    },
    {
      "anonymous": false,
      "inputs": [
        {
          "indexed": false,
          "internalType": "string",
          "name": "invoiceNumber",
          "type": "string"
        }
      ],
      "name": "InvoicePaid",
      "type": "event"
    },
    {
      "inputs": [
        {
          "internalType": "string",
          "name": "",
          "type": "string"
        }
      ],
      "name": "invoices",
      "outputs": [
        {
          "internalType": "string",
          "name": "invoiceNumber",
          "type": "string"
        },
        {
          "internalType": "uint256",
          "name": "amount",
          "type": "uint256"
        },
        {
          "internalType": "address payable",
          "name": "buyer",
          "type": "address"
        },
        {
          "internalType": "address payable",
          "name": "seller",
          "type": "address"
        },
        {
          "internalType": "bool",
          "name": "isPaid",
          "type": "bool"
        },
        {
          "internalType": "bool",
          "name": "isDelivered",
          "type": "bool"
        }
      ],
      "stateMutability": "view",
      "type": "function",
      "constant": true
    },
    {
      "inputs": [
        {
          "internalType": "string",
          "name": "invoiceNumber",
          "type": "string"
        },
        {
          "internalType": "uint256",
          "name": "amount",
          "type": "uint256"
        },
        {
          "internalType": "address payable",
          "name": "buyer",
          "type": "address"
        },
        {
          "internalType": "address payable",
          "name": "seller",
          "type": "address"
        }
      ],
      "name": "createInvoice",
      "outputs": [],
      "stateMutability": "nonpayable",
      "type": "function"
    },
    {
      "inputs": [
        {
          "internalType": "string",
          "name": "invoiceNumber",
          "type": "string"
        }
      ],
      "name": "markAsPaid",
      "outputs": [],
      "stateMutability": "payable",
      "type": "function",
      "payable": true
    },
    {
      "inputs": [
        {
          "internalType": "string",
          "name": "invoiceNumber",
          "type": "string"
        }
      ],
      "name": "markAsDelivered",
      "outputs": [],
      "stateMutability": "nonpayable",
      "type": "function"
    }
  ],
  "bytecode": "0x608060405234801561001057600080fd5b5061110d806100206000396000f3fe60806040526004361061003f5760003560e01c8063133ce05114610044578063c4f99cdb1461006d578063cf4b8ac814610096578063e74d5375146100d8575b600080fd5b34801561005057600080fd5b5061006b60048036038101906100669190610985565b6100f4565b005b34801561007957600080fd5b50610094600480360381019061008f91906109c6565b610311565b005b3480156100a257600080fd5b506100bd60048036038101906100b89190610985565b610579565b6040516100cf96959493929190610d78565b60405180910390f35b6100f260048036038101906100ed9190610985565b6106ad565b005b600080826040516101059190610cf3565b908152602001604051809103902090503373ffffffffffffffffffffffffffffffffffffffff168160030160009054906101000a900473ffffffffffffffffffffffffffffffffffffffff1673ffffffffffffffffffffffffffffffffffffffff16146101a7576040517f08c379a000000000000000000000000000000000000000000000000000000000815260040161019e90610e40565b60405180910390fd5b8060030160149054906101000a900460ff166101f8576040517f08c379a00000000000000000000000000000000000000000000000000000000081526004016101ef90610e00565b60405180910390fd5b8060030160159054906101000a900460ff161561024a576040517f08c379a000000000000000000000000000000000000000000000000000000000815260040161024190610e20565b60405180910390fd5b60018160030160156101000a81548160ff0219169083151502179055508060030160009054906101000a900473ffffffffffffffffffffffffffffffffffffffff1673ffffffffffffffffffffffffffffffffffffffff166108fc82600101549081150290604051600060405180830381858888f193505050501580156102d5573d6000803e3d6000fd5b507f6cb117b845d9dc9b467fdeb9de38a4bfc8c1f7387e1248e5025041a6c2844e1a826040516103059190610d0a565b60405180910390a15050565b600073ffffffffffffffffffffffffffffffffffffffff166000856040516103399190610cf3565b908152602001604051809103902060020160009054906101000a900473ffffffffffffffffffffffffffffffffffffffff1673ffffffffffffffffffffffffffffffffffffffff16146103c1576040517f08c379a00000000000000000000000000000000000000000000000000000000081526004016103b890610de0565b60405180910390fd5b6040518060c001604052808581526020018481526020018373ffffffffffffffffffffffffffffffffffffffff1681526020018273ffffffffffffffffffffffffffffffffffffffff168152602001600015158152602001600015158152506000856040516104309190610cf3565b9081526020016040518091039020600082015181600001908051906020019061045a929190610850565b506020820151816001015560408201518160020160006101000a81548173ffffffffffffffffffffffffffffffffffffffff021916908373ffffffffffffffffffffffffffffffffffffffff16021790555060608201518160030160006101000a81548173ffffffffffffffffffffffffffffffffffffffff021916908373ffffffffffffffffffffffffffffffffffffffff16021790555060808201518160030160146101000a81548160ff02191690831515021790555060a08201518160030160156101000a81548160ff0219169083151502179055509050507ff04886ad3a16a7e94d7f69cda614d1a25e34196b0b01292c67891af4f3a5648d8484848460405161056b9493929190610d2c565b60405180910390a150505050565b6000818051602081018201805184825260208301602085012081835280955050505050506000915090508060000180546105b290611008565b80601f01602080910402602001604051908101604052809291908181526020018280546105de90611008565b801561062b5780601f106106005761010080835404028352916020019161062b565b820191906000526020600020905b81548152906001019060200180831161060e57829003601f168201915b5050505050908060010154908060020160009054906101000a900473ffffffffffffffffffffffffffffffffffffffff16908060030160009054906101000a900473ffffffffffffffffffffffffffffffffffffffff16908060030160149054906101000a900460ff16908060030160159054906101000a900460ff16905086565b600080826040516106be9190610cf3565b908152602001604051809103902090503373ffffffffffffffffffffffffffffffffffffffff168160020160009054906101000a900473ffffffffffffffffffffffffffffffffffffffff1673ffffffffffffffffffffffffffffffffffffffff1614610760576040517f08c379a000000000000000000000000000000000000000000000000000000000815260040161075790610e80565b60405180910390fd5b8060030160149054906101000a900460ff16156107b2576040517f08c379a00000000000000000000000000000000000000000000000000000000081526004016107a990610e60565b60405180910390fd5b806001015434146107f8576040517f08c379a00000000000000000000000000000000000000000000000000000000081526004016107ef90610ea0565b60405180910390fd5b60018160030160146101000a81548160ff0219169083151502179055507fbdb63d064d1d786c599a4916ba25360af733586ed331955ccf9ff05955b3b080826040516108449190610d0a565b60405180910390a15050565b82805461085c90611008565b90600052602060002090601f01602090048101928261087e57600085556108c5565b82601f1061089757805160ff19168380011785556108c5565b828001600101855582156108c5579182015b828111156108c45782518255916020019190600101906108a9565b5b5090506108d291906108d6565b5090565b5b808211156108ef5760008160009055506001016108d7565b5090565b600061090661090184610ef1565b610ec0565b90508281526020810184848401111561091e57600080fd5b610929848285610fc6565b509392505050565b600081359050610940816110a9565b92915050565b600082601f83011261095757600080fd5b81356109678482602086016108f3565b91505092915050565b60008135905061097f816110c0565b92915050565b60006020828403121561099757600080fd5b600082013567ffffffffffffffff8111156109b157600080fd5b6109bd84828501610946565b91505092915050565b600080600080608085870312156109dc57600080fd5b600085013567ffffffffffffffff8111156109f657600080fd5b610a0287828801610946565b9450506020610a1387828801610970565b9350506040610a2487828801610931565b9250506060610a3587828801610931565b91505092959194509250565b610a4a81610f90565b82525050565b610a5981610f48565b82525050565b610a6881610f5a565b82525050565b6000610a7982610f21565b610a838185610f2c565b9350610a93818560208601610fd5565b610a9c81611098565b840191505092915050565b6000610ab282610f21565b610abc8185610f3d565b9350610acc818560208601610fd5565b80840191505092915050565b6000610ae5601683610f2c565b91507f496e766f69636520616c726561647920657869737473000000000000000000006000830152602082019050919050565b6000610b25601783610f2c565b91507f496e766f696365206973206e6f742070616964207965740000000000000000006000830152602082019050919050565b6000610b65601983610f2c565b91507f496e766f69636520616c72656164792064656c697665726564000000000000006000830152602082019050919050565b6000610ba5603183610f2c565b91507f4f6e6c79207468652073656c6c65722063616e206d61726b2074686520696e7660008301527f6f6963652061732064656c6976657265640000000000000000000000000000006020830152604082019050919050565b6000610c0b601483610f2c565b91507f496e766f69636520616c726561647920706169640000000000000000000000006000830152602082019050919050565b6000610c4b602b83610f2c565b91507f4f6e6c79207468652062757965722063616e206d61726b2074686520696e766f60008301527f69636520617320706169640000000000000000000000000000000000000000006020830152604082019050919050565b6000610cb1601083610f2c565b91507f496e636f727265637420616d6f756e74000000000000000000000000000000006000830152602082019050919050565b610ced81610f86565b82525050565b6000610cff8284610aa7565b915081905092915050565b60006020820190508181036000830152610d248184610a6e565b905092915050565b60006080820190508181036000830152610d468187610a6e565b9050610d556020830186610ce4565b610d626040830185610a41565b610d6f6060830184610a41565b95945050505050565b600060c0820190508181036000830152610d928189610a6e565b9050610da16020830188610ce4565b610dae6040830187610a50565b610dbb6060830186610a50565b610dc86080830185610a5f565b610dd560a0830184610a5f565b979650505050505050565b60006020820190508181036000830152610df981610ad8565b9050919050565b60006020820190508181036000830152610e1981610b18565b9050919050565b60006020820190508181036000830152610e3981610b58565b9050919050565b60006020820190508181036000830152610e5981610b98565b9050919050565b60006020820190508181036000830152610e7981610bfe565b9050919050565b60006020820190508181036000830152610e9981610c3e565b9050919050565b60006020820190508181036000830152610eb981610ca4565b9050919050565b6000604051905081810181811067ffffffffffffffff82111715610ee757610ee6611069565b5b8060405250919050565b600067ffffffffffffffff821115610f0c57610f0b611069565b5b601f19601f8301169050602081019050919050565b600081519050919050565b600082825260208201905092915050565b600081905092915050565b6000610f5382610f66565b9050919050565b60008115159050919050565b600073ffffffffffffffffffffffffffffffffffffffff82169050919050565b6000819050919050565b6000610f9b82610fa2565b9050919050565b6000610fad82610fb4565b9050919050565b6000610fbf82610f66565b9050919050565b82818337600083830152505050565b60005b83811015610ff3578082015181840152602081019050610fd8565b83811115611002576000848401525b50505050565b6000600282049050600182168061102057607f821691505b602082108114156110345761103361103a565b5b50919050565b7f4e487b7100000000000000000000000000000000000000000000000000000000600052602260045260246000fd5b7f4e487b7100000000000000000000000000000000000000000000000000000000600052604160045260246000fd5b6000601f19601f8301169050919050565b6110b281610f48565b81146110bd57600080fd5b50565b6110c981610f86565b81146110d457600080fd5b5056fea26469706673582212205209c6ebd35eb349d8ac764ca598d0ca4ea52549a1686a001622a105ad9f5c1164736f6c63430008000033",
  "immutableReferences": {},
  "source": "// SPDX-License-Identifier: MIT\npragma solidity ^0.8.0;\n\ncontract Invoice {\n    struct InvoiceDetail {\n        string invoiceNumber;\n        uint256 amount;\n        address payable buyer;\n        address payable seller;\n        bool isPaid;\n        bool isDelivered;\n    }\n\n    mapping(string => InvoiceDetail) public invoices;\n\n    event InvoiceCreated(string invoiceNumber, uint256 amount, address buyer, address seller);\n    event InvoicePaid(string invoiceNumber);\n    event InvoiceDelivered(string invoiceNumber);\n\n    function createInvoice(string memory invoiceNumber, uint256 amount, address payable buyer, address payable seller) public {\n        require(invoices[invoiceNumber].buyer == address(0), \"Invoice already exists\");\n\n        invoices[invoiceNumber] = InvoiceDetail({\n            invoiceNumber: invoiceNumber,\n            amount: amount,\n            buyer: buyer,\n            seller: seller,\n            isPaid: false,\n            isDelivered: false\n        });\n\n        emit InvoiceCreated(invoiceNumber, amount, buyer, seller);\n    }\n\n    function markAsPaid(string memory invoiceNumber) public payable {\n        InvoiceDetail storage invoice = invoices[invoiceNumber];\n        require(invoice.buyer == msg.sender, \"Only the buyer can mark the invoice as paid\");\n        require(!invoice.isPaid, \"Invoice already paid\");\n        require(msg.value == invoice.amount, \"Incorrect amount\");\n\n        invoice.isPaid = true;\n        emit InvoicePaid(invoiceNumber);\n    }\n\n    function markAsDelivered(string memory invoiceNumber) public {\n        InvoiceDetail storage invoice = invoices[invoiceNumber];\n        require(invoice.seller == msg.sender, \"Only the seller can mark the invoice as delivered\");\n        require(invoice.isPaid, \"Invoice is not paid yet\");\n        require(!invoice.isDelivered, \"Invoice already delivered\");\n\n        invoice.isDelivered = true;\n        invoice.seller.transfer(invoice.amount);\n        emit InvoiceDelivered(invoiceNumber);\n    }\n}\n",
  "sourcePath": "/home/damilola/Desktop/blockchain-supply-chain/backend/contracts/Invoice.sol",
  "compiler": {
    "name": "solc",
    "version": "0.8.0+commit.c7dfd78e.Emscripten.clang"
  },
  "schemaVersion": "3.4.16",
  "updatedAt": "2024-06-16T15:31:17.742Z",
  "networkType": "ethereum",
  "devdoc": {
    "kind": "dev",
    "methods": {},
    "version": 1
  },
  "userdoc": {
    "kind": "user",
    "methods": {},
    "version": 1
  }
}